:100000000C9409220C943A220C943A220C943A2231
:100010000C943A220C943A220C943A220C943A22F0
:100020000C943A220C943A220C943A220C943A22E0
:100030000C943A220C949BFE0C943A220C943A2293
:100040000C943A220C949FA40C943A220C943A22D9
:100050000C943A220C943A220C941C9C0D94F000BF
:100060000C943A220C9419720C940F720C943A224C
:100070000C943A220C943A220C943A220C943A2290
:100080000C943A220C943A220C943A220C943A2280
:100090000C943A220C943A220C943A220C943A2270
:1000A0000C943A220C943A220C943A220C943A2260
:1000B0000C943A220C943A220C943A220C943A2250
:1000C0000C943A220C943A220C943A220C943A2240
:1000D0000C943A220C943A220C943A220C943A2230
:1000E0000C943A22084AD73B3BCE016E84BCBFFD3C
:1000F000C12F3D6C74319ABD56833DDA3D00C77FF8
:1001000011BED9E4BB4C3E916BAAAABE0000008090
:100110003F05A84CCDB2D44EB93836A9020C50B91F
:10012000918688083CA6AAAA2ABE000000803F0744
:10013000634236B79BD8A71A39685618AEBAAB5582
:100140008C1D3CB7CC5763BD6DEDFD753EF6177247
:1001500031BF000000803F08000000BE9224491219
:100160003EABAAAA2ABECDCCCC4C3E00000080BE3D
:10017000ABAAAAAA3E00000000BF000000803F001A
:1001800000000000084178D3BB4387D1133D190E0E
:100190003CC3BD4282AD2B3E68EC8276BED98FE176
:1001A000A93E4C80EFFFBE01C4FF7F3F000000006E
:1001B00000000C94CDE20C9403950C9422250C9431
:1001C0007C220C943B950C9476E20C94D7310D94E0
:1001D00029000C94E8E20C94302C0C94FA910C94C5
:1001E000C5310C946E490C94C0240C941E8E0C9452
:1001F0002B8E0C94E2E20C94F6E20C94DEFF0C944D
:1002000074230D9433000C949A2A0C94B0FF0C9430
:10021000D2250C94E4240C943F250C9466950C9400
:10022000E6240C941F8F0C94EE220C94FAE20D94A9
:100230000B000C9465350C943C940C9468220C943F
:10024000D5E20C94A9900C9489E30C94BF310C94E2
:1002500022950C94FEE20C94EF310C94C4250C947E
:1002600090220C94DEE20C94394A0C946B390C9475
:1002700075E20C94C3910C9470950C94328E0C948E
:100280006C8C0C9408E30C94D1E20C94A3FF0C94B6
:100290002D3E0C943C220C94D1240C9452220C94AC
:1002A000FCFF0C94CC220C94C4FF0C94FAC40C9464
:1002B00078E20C94A4220C94ABFF0C947F250C9450
:1002C00020250C94E8FF0C94F5310C94E0220C945A
:1002D00074990C94FB310D9415000C94ED8E0C94D4
:1002E00000920D941F000C944C3B0C9462320C94C1
:1002F0006B950D943D000C94FB220C94B8220C9449
:1003000003E30C94F4910C94E23C0C944D2B0C946C
:10031000ECE20C9475250C94F68D0C9449DE0C944B
:10032000A6250C9454950C94BCC10C94B8B90C94AB
:100330006F930C94BAFF0C9403250C9401930C94C6
:1003400089250C94E8910C94CB250C941F230C94D4
:10035000DD310C94E3310C9461950C94C3E20C9460
:100360005E280C94F22B0C94AF330C94CB310C948C
:10037000F7C40C94D1310D947D1A0C94C9E20C94FD
:1003800004E30C94CEFF0C94C5BF0C9475930C94AD
:10039000EE910C94F0E20C94CABF0C94FB8D0C947B
:1003A000D8E20C94D6FF0C9475230C9422230C9461
:1003B000E9310C94CFBF0D94A8130C9480E00C94F9
:1003C0001FC50C94F2FF0C945C954E414E494E496A
:1003D0005459494E46CDCCCC3D0AD7233C17B7D112
:1003E0003877CC2B329595E6241FB14F0A000020B8
:1003F000410000C84200401C4620BCBE4CCA1B0E37
:100400005AAEC59D744C4556454C494E4700434F26
:100410004D4D554E49434154494F4E004452595257
:10042000554E004552524F525300494E464F0045DB
:1004300043484F004572726F722077726974696E1B
:100440006720746F20454550524F4D210A003637C2
:1004500026033C3D380F2E303E1224221E1A1C1853
:1004600008440AFF4308090001627573793A207055
:10047000617573656420666F7220696E7075740AA9
:1004800000627573793A2070617573656420666FD8
:100490007220757365720A00627573793A20707202
:1004A0006F63657373696E670A004B494C4C206338
:1004B0006175736564206279204B494C4C206275EC
:1004C00074746F6E2F70696E0A004B494C4C206338
:1004D000617573656420627920746F6F206D756338
:1004E0006820696E6163746976652074696D652042
:1004F0002D2063757272656E7420636F6D6D616E11
:10050000643A20004269747465206E657573746185
:100510007274656E00445255434B45522047455313
:10052000544F505054004142474542524F43484572
:100530004E005072696E7465722068616C746564F7
:100540002E206B696C6C28292063616C6C656421BA
:100550000A006563686F3A004572726F723A002054
:100560002864697361626C6564290A00202800416F
:10057000424C2041646A7573746D656E74205A0034
:100580005A20466164653A20002028656E61626CDD
:100590006564290A004175746F20426564204C65CA
:1005A00076656C696E673A2042494C494E45415226
:1005B0000A00204E6F7A7A6C65290A0020262053A3
:1005C000616D65205A2061730020262041626F769C
:1005D000650020262042656C6F77002D4261636BB9
:1005E00000202852696768740050726F6265204F5E
:1005F000666673657420583A323420593A35205A69
:100600003A0050726F62653A204649585F4D4F5527
:100610004E5445445F50524F42450A004D61636855
:10062000696E6520547970653A2043617274657310
:1006300069616E0A002028646F6E65290A005D0AF0
:10064000004578747261706F6C617465205B004264
:10065000696C696E656172204C6576656C696E6760
:1006600020477269643A0A00537562646976696466
:1006700065642077697468204341544D554C4C2083
:10068000524F4D204C6576656C696E6720477269E4
:10069000643A0A0072657365745F6265645F6C65D5
:1006A00076656C0A004F46460A004661646520483C
:1006B00065696768742000426564204C6576656CE6
:1006C000696E6720004661696C656420746F2065FF
:1006D0006E61626C6520426564204C6576656C696C
:1006E0006E670A00496E76616C6964206D65736897
:1006F0002E0A003C3C3C204732390A0020636F72CE
:10070000726563746564205A3A0047323920756E09
:10071000636F72726563746564205A3A00203A20F0
:100720003E2070726F62696E6720636F6D706C65DA
:1007300074650A00202063757272656E745F706F55
:10074000736974696F6E3D00202844525952554EAA
:100750002900473239204175746F20426564204C6E
:100760006576656C696E67003F20284C2C522C46DC
:100770002C4229206F7574206F6620626F756E643D
:10078000732E0A003F2856296572626F7365206CCC
:100790006576656C20697320696D706C617573692D
:1007A000626C652028302D34292E0A0042616420B5
:1007B0005A2076616C75650A004E6F2062696C691B
:1007C0006E65617220677269640A003E204175742B
:1007D0006F2D6C6576656C206E6F74206E65656438
:1007E00065642C20736B69700A3C3C3C20473239AD
:1007F0000A0047323800290A003C3C3C20736574EB
:100800005F617869735F69735F6E6F745F61745F56
:10081000686F6D652800290A003E3E3E20736574AE
:100820005F617869735F69735F6E6F745F61745F36
:10083000686F6D6528003C3C3C204733340A004714
:100840003238205A0020697465726174696F6E7362
:10085000206F6620004469642000473334206162C1
:100860006F727465642E0A0054617267657420614A
:100870006363757261637920616368696576656435
:100880002E0A0020636F727265637465642062795A
:1008900020003E205A0044656372656173696E678B
:1008A0002061636375726163792064657465637444
:1008B00065642E0A000A444946464552454E434562
:1008C000205A312D5A323D00206D65617375726575
:1008D0006420706F736974696F6E20697320003EC5
:1008E000205A0050726F62696E67206661696C659C
:1008F000642E0A000A495445524154494F4E3A2049
:10090000003E2070726F62696E6720616C6C2070AF
:100910006F736974696F6E732E0A003F2841296DE9
:10092000706C696669636174696F6E206F7574209D
:100930006F6620626F756E64732028302E352D32FD
:100940002E30292E0A003F285429617267657420D1
:100950006163637572616379206F7574206F6620BF
:10096000626F756E64732028302E30312D312E3039
:10097000292E0A003F2849297465726174696F6ED7
:10098000206F7574206F6620626F756E6473202807
:10099000312D3330292E0A003E3E3E204733340AA3
:1009A0000046696E6973686564210A00206F6620DD
:1009B00000205A00205900205800476F696E6720B8
:1009C000746F3A00436C6F636B776973650A004319
:1009D0006F756E7465722D00204469726563746969
:1009E0006F6E3A2000202020616E676C653A20000F
:1009F0005374617274696E67207261646975733AC9
:100A00002000506F736974696F6E696E6720746837
:100A1000652070726F62652E2E2E0A003F4E756D36
:100A2000626572206F66206C65677320696E206D49
:100A30006F76656D656E74206E6F7420706C617575
:100A40007369626C652028302D3135292E0A003FEC
:100A50002028582C5929206F7574206F6620626FEA
:100A6000756E64732E0A003F53616D706C65207360
:100A7000697A65206E6F7420706C61757369626C41
:100A8000652028342D3530292E0A004D3438205A5F
:100A90002D50726F62652052657065617461626984
:100AA0006C69747920546573740A003F285629656F
:100AB00072626F7365206C6576656C20697320695E
:100AC0006D706C61757369626C652028302D3429F6
:100AD0002E0A0020496E76616C6964206578747214
:100AE00075646572200057617274656E2E2E2E003B
:100AF0003C3C3C205A5F534146455F484F4D494E70
:100B0000470A00203A205A5F534146455F484F4DFF
:100B1000494E470A00202064657374696E617469E8
:100B20006F6E3D005A5F534146455F484F4D494EF9
:100B300047203E3E3E0A00566F7268657220585943
:100B400020686F6D656E0A00566F72686572205876
:100B50005920686F6D656E003C3C3C204732380A76
:100B6000005261697365205A20286265666F72655C
:100B700020686F6D696E672920746F20003E2068C1
:100B80006F6D696E67206E6F74206E656564656455
:100B90002C20736B69700A3C3C3C204732380A00B9
:100BA0003E3E3E204732380A00203A203E3E3E205C
:100BB0004732390A00202063757272656E745F7067
:100BC0006F736974696F6E3D00205A3A2000205996
:100BD0003A200042656420583A20004D6573682031
:100BE000706F696E742063616E6E6F742062652031
:100BF0007265736F6C7665640A004B6C69636B2079
:100C00007A756D20466F72747365747A656E004DE7
:100C10006F746F72656E20616E6765736368616C77
:100C200074657400456E642066696C65206C697338
:100C3000740A00426567696E2066696C65206C699C
:100C400073740A00286E6F2066696C65290043750D
:100C50007272656E742066696C653A200053442098
:100C60007072696E74696E67206279746520004ED7
:100C70006F74205344207072696E74696E670A0045
:100C80002E0A0044656C6574696F6E206661696C3C
:100C900065642C2046696C653A200046696C6520C5
:100CA00064656C657465643A002569730025696D37
:100CB00020256973002569682025696D20256973E1
:100CC00000256964202569682025696D20256973E0
:100CD0000025697920256964202569682025696DCA
:100CE00020256973005072696E742074696D653ACD
:100CF00020006F6666002F042A0423041C040E04DF
:100D0000050444454255473A004D313133205300E4
:100D100020573A0042657474206BC3BC686C742E13
:100D20002E2E0042657474206865697A742E2E2E0A
:100D3000006F6B003344205072696E746572204FEF
:100D400046462E004348414D4245525F54454D5062
:100D500045524154555245004D4F54494F4E5F4DF9
:100D60004F44455300544845524D414C5F50524FFB
:100D700054454354494F4E004155544F5245504FEE
:100D800052545F53445F5354415455530050524F93
:100D90004D50545F535550504F525400454D45529D
:100DA00047454E43595F50415253455200434153CA
:100DB000455F4C494748545F4252494748544E4565
:100DC000535300544F47474C455F4C494748545391
:100DD00000534F4654574152455F504F57455200BC
:100DE0004255494C445F50455243454E54004C4592
:100DF00056454C494E475F44415441005A5F50525A
:100E00004F4245004155544F4C4556454C005052B9
:100E1000494E545F4A4F420050524F475245535338
:100E2000004155544F5245504F52545F54454D5018
:100E300000564F4C554D455452494300454550527C
:100E40004F4D0042494E4152595F46494C455F540F
:100E500052414E534645520053455249414C5F580A
:100E60004F4E5F584F4646004649524D57415245F6
:100E70005F4E414D453A4D61726C696E20627567F7
:100E80006669782D322E302E78202847697468756F
:100E9000622920534F555243455F434F44455F55A8
:100EA000524C3A68747470733A2F2F67697468757E
:100EB000622E636F6D2F4D61726C696E4669726D43
:100EC000776172652F4D61726C696E2050524F547C
:100ED0004F434F4C5F56455253494F4E3A312E3097
:100EE000204D414348494E455F545950453A33449B
:100EF000205072696E7465722045585452554445AD
:100F0000525F434F554E543A3120555549443A6348
:100F1000656465326132662D343161322D34373487
:100F2000382D396231322D633535633632663336CA
:100F30003766660A002F2F20004D31343520533C90
:100F4000696E6465783E206F7574206F66207261EB
:100F50006E67652028302D31290A00205400205268
:100F600000416363656C65726174696F6E3A20500D
:100F7000005741524E494E4721204C6F77205A204E
:100F80004A65726B206D6179206C65616420746FB5
:100F900020756E77616E746564207061757365731A
:100FA0002E0A004F4646004F4E00205A002059009E
:100FB000580020204D61783A2000205A0020590026
:100FC000580020204D696E3A2000536F66742065EA
:100FD0006E6473746F70733A200020466C6F773ABA
:100FE000200050726F7465637465642050696E0AE6
:100FF0000020643A0020693A0020703A00496E7679
:10100000616C69642065787472756465720A002089
:10101000643A0020693A0020703A00646973006500
:101020006E0043290A0061626C656420286D696E58
:101030002074656D702000436F6C64206578747255
:10104000756465732061726520004D65736820705A
:101050006F696E742063616E6E6F742062652072BA
:1010600065736F6C7665640A004D34323120696EA9
:10107000636F727265637420706172616D6574650F
:10108000722075736167650A00486F6D65766572D9
:101090007361747A20616B746976004572723A20CC
:1010A000546F6F206661722100546F6F2066617209
:1010B0002066726F6D207265666572656E6365206D
:1010C000706F696E740A00454550524F4D204F4B6A
:1010D0000A003F5A206F7574206F662072616E6738
:1010E0006520282D323020746F203230290A0050BC
:1010F000726F6265205A204F66667365743A2000ED
:101100003F285929206F7574206F6620626F756EB5
:1011100064732E0A003F285829206F7574206F666B
:1011200020626F756E64732E0A003F285329205A7F
:101130002D5374657070657220696E6465782069DE
:101140006E76616C69642E0A00496E76616C696422
:101150002065787472756465720A003C3C3C2054CA
:1011600028290A00203A2041465445520A002020EE
:1011700063757272656E745F706F736974696F6E98
:101180003D00203A204245464F52450A0020206348
:10119000757272656E745F706F736974696F6E3D9E
:1011A00000290A003E3E3E20542800220A00656EB7
:1011B0007175657565696E672022006F6B005265F9
:1011C00073656E643A2000414E474548414C544592
:1011D0004E005072696E7465722073746F70706522
:1011E000642064756520746F206572726F72732E4F
:1011F0002046697820746865206572726F7220617C
:101200006E6420757365204D39393920746F2072F2
:101210006573746172742E202854656D70657261F7
:10122000747572652069732072657365742E20531E
:1012300065742069742061667465722072657374C8
:10124000617274696E67290A004E6F204368656396
:101250006B73756D2077697468206C696E65206E9C
:10126000756D6265722C204C617374204C696E65DB
:101270003A20004E6F20436865636B73756D20776D
:10128000697468206C696E65206E756D6265722C7C
:10129000204C617374204C696E653A200063686568
:1012A000636B73756D206D69736D617463682C2059
:1012B0004C617374204C696E653A20004C696E6510
:1012C000204E756D626572206973206E6F74204CBC
:1012D000617374204C696E65204E756D6265722B6A
:1012E000312C204C617374204C696E653A20004D9E
:1012F000313130004D333100534420726561642038
:101300006572726F720A00446F6E65207072696E4A
:1013100074696E672066696C650A004361703A0003
:1013200047322F47332062616420706172616D65BE
:10133000746572730A0020573A004520457874722C
:101340002E206BC3BC686C742E2E2E004520457871
:1013500074722E206865697A742E2E2E00236465BF
:1013600066696E652044454641554C545F000062F5
:101370006564004B6420004B6920004B70200050D6
:101380004944204175746F74756E652066696E6995
:1013900073686564212050757420746865206C61E1
:1013A0007374204B702C204B6920616E64204B6459
:1013B00020636F6E7374616E74732066726F6D203C
:1013C00062656C6F7720696E746F20436F6E66691B
:1013D0006775726174696F6E2E680A005049442007
:1013E0004175746F74756E65206661696C65642102
:1013F0002074696D656F75740A0045312008204EB0
:1014000049434854204552524549434854004245B7
:10141000545408204E4943485420455252454943AC
:10142000485400546865726D616C2052756E617726
:101430006179004531204845495A454E204552467C
:101440004F4C474C4F530042657474206865697A6D
:10145000656E206665686C67652E00486561746915
:101460006E67206661696C6564005049442041756F
:10147000746F74756E65206661696C6564212054B3
:10148000656D706572617475726520746F6F206828
:101490006967680A00204B643A2000204B693A20B3
:1014A00000204B703A20000A20436C61737369631B
:1014B00020504944200A002054753A2000204B75E2
:1014C0003A2000206D61783A2000206D696E3A2044
:1014D0000020643A200020626961733A200050497C
:1014E00044204175746F74756E65207374617274F5
:1014F0000A00504944204175746F74756E6520660A
:1015000061696C6564212054656D706572617475E4
:10151000726520746F6F20686967680A00504944DB
:10152000204175746F74756E65206661696C6564C1
:101530002120426164206578747275646572206E42
:10154000756D6265720A004572723A20757466386C
:1015500020666F6E74206E6F7420696E69746961A5
:101560006C697A65642E004572723A20757466382B
:1015700020666F6E74206E6F7420696E6974696185
:101580006C697A65642E004572723A20757466380B
:1015900020666F6E74206E6F7420696E6974696165
:1015A0006C697A65642E0025753A25303275002500
:1015B0003032753A25303275002575642025303279
:1015C000753A253032750020202020202020002070
:1015D000202020001FE020102010201010201020BC
:1015E0002010201030300840048003001FE03FF03E
:1015F0003FF03FF01FE01FE03FF03FF03FF00FC033
:10160000078003003FFFF038007030FC3020FC10F2
:101610002078102030102C00D02E31D02F7BD02FEE
:101620007BD02E31D02C00D020301020781020FC20
:101630001030FC303800703FFFF03FFFF038007092
:101640003186302387102787902F87D02F03D02013
:1016500030102078102078102030102F03D02F87E2
:10166000D02787902387103186303800703FFFF0F5
:101670001FFFF81FFFF80410400208200208200492
:101680001040082080104100104100082080041004
:10169000400000001FFFF81FFFF853442D4B6172FC
:1016A000746520656E746665726E740053442D4BCC
:1016B000617274652065726B616E6E7400334420D4
:1016C0005072696E74657220626572656974004457
:1016D0007275636B742E2E2E00447275636B2070CE
:1016E000617573696572742E2E2E00447275636B7A
:1016F000206162676562726F6368656E0046696C3F
:10170000616D656E7464757263686D65737365721F
:101710000046696C616D656E7464757263686D65B1
:10172000737365720061757300616E004520696EA8
:10173000206D6DC2B3004572772E2045696E7374BB
:10174000656C6C756E67656E00082046616B746F22
:101750007200082046616B746F720008206D61781A
:101760000008206D61780008206D696E0008206D0A
:10177000696E0061757300616E004175746F20546D
:10178000656D70657261747572004572772E2045C3
:10179000696E7374656C6C756E67656E0056206D4E
:1017A000696E204C65657266616872740056206DC2
:1017B000696E204C65657266616872740056206DB2
:1017C000696E200056206D696E200056206D61788C
:1017D00020450056206D617820450056206D6178C7
:1017E000205A0056206D6178205A0056206D61788D
:1017F00020590056206D617820590056206D61787F
:1018000020580056206D61782058004572772E20B0
:1018100045696E7374656C6C756E67656E0041200A
:101820006D617820450041206D61782045004120A0
:101830006D6178205A0041206D6178205A00412066
:101840006D617820590041206D6178205900412058
:101850006D617820580041206D617820580041204A
:101860004C65657266616872740041204C656572F2
:10187000666168727400412045696E7A756700413F
:101880002045696E7A75670042657363686C65759B
:101890006E6967756E670042657363686C65756E27
:1018A0006967756E67004572772E2045696E73749F
:1018B000656C6C756E67656E00562045204A6572D2
:1018C0006B00562045204A65726B0056205A204A0C
:1018D00065726B0056205A204A65726B005620597B
:1018E000204A65726B00562059204A65726B00567B
:1018F0002058204A65726B00562058204A65726B4A
:10190000004572772E2045696E7374656C6C756E38
:1019100067656E00452053746570732F6D6D0045CB
:101920002053746570732F6D6D005A205374657069
:10193000732F6D6D005A2053746570732F6D6D0099
:10194000592053746570732F6D6D00592053746561
:1019500070732F6D6D00582053746570732F6D6D0B
:1019600000582053746570732F6D6D004572772E8B
:101970002045696E7374656C6C756E67656E0000EA
:10198000060C00FE07022603BC01FFFE0AFE08FE4D
:1019900005080806000040F0C888889878100508F7
:1019A00008060000C0F88888888888F805050506BC
:1019B00000012030F830200508080600002070F8EB
:1019C00020202020E00509090600FF2070A8A8B803
:1019D00088887020050606060001E08CEA8C8A0AD9
:1019E0000509090600FFF8A88888888888A8F805EE
:1019F0000A0A0600FE205050505088A8A88870039C
:101A0000030306000340A040FFFFFFFFFFFFFFFFAF
:101A1000FFFFFFFFFFFFFFFFFFFFFFFFFFFF0000D4
:101A2000000605FF01070706020080808080800015
:101A300080030303060105A0A0A00506060600001A
:101A400050F85050F8500509090600FF2070A8A072
:101A50007028A87020050707060000C8C81020409D
:101A6000989805070706000040A0A040A8906801CC
:101A700003030602058080800309090601FF204058
:101A8000408080804040200309090601FF804040DB
:101A900020202040408005070706000020A8702075
:101AA00070A8200505050600012020F8202002036B
:101AB000030601FFC04080050101060003F8020291
:101AC00002060100C0C0050707060000081010202C
:101AD000404080050707060000708898A8C88870F5
:101AE00003070706010040C040404040E0050707EB
:101AF000060000708808102040F80507070600005F
:101B0000F8081030088870050707060000103050EC
:101B100090F81010050707060000F880F008088804
:101B200070050707060000304080F08888700507C0
:101B300007060000F80810102020200507070600FF
:101B40000070888870888870050707060000708814
:101B50008878081060020505060100C0C000C0C0FA
:101B60000206060601FFC0C000C04080030505064E
:101B700001012040804020050303060002F800F820
:101B80000305050601018040204080050707060087
:101B900000708810202000200507070600007088CC
:101BA000B8A8B88070050707060000708888F88814
:101BB0008888050707060000F04848704848F00587
:101BC0000707060000708880808088700507070678
:101BD0000000F04848484848F0050707060000F8AC
:101BE0008080F08080F8050707060000F88080F00C
:101BF00080808005070706000070888080988870C4
:101C0000050707060000888888F888888803070782
:101C1000060100E04040404040E0050707060000A4
:101C2000381010101090600507070600008890A07B
:101C3000C0A0908805070706000080808080808013
:101C4000F805070706000088D8A88888888805074F
:101C5000070600008888C8A8988888050707060036
:101C60000070888888888870050707060000F0885B
:101C700088F080808005070706000070888888A8A3
:101C80009068050707060000F08888F0A090880596
:101C9000070706000070888070088870050707062F
:101CA0000000F820202020202005070706000088DB
:101CB00088888888887005070706000088888888D3
:101CC00050502005070706000088888888A8A8507B
:101CD00005070706000088885020508888050707F8
:101CE00006000088885020202020050707060000F5
:101CF000F80810204080F80309090601FFE0808001
:101D00008080808080E0050707060000804040203A
:101D10001010080309090601FFE0202020202020E0
:101D200020E0050303060005205088050101060098
:101D3000FEF80303030601058040200505050600A3
:101D40000070087888780507070600008080F08812
:101D50008888F005050506000070808088700507FA
:101D600007060000080878888888780505050600B9
:101D7000007088F08070050707060000304840E0DA
:101D80004040400507070600FE7088888878087084
:101D90000507070600008080F08888888803070709
:101DA0000601004000C0404040E00409090601FE71
:101DB000100030101010109060050707060000801A
:101DC000808890E09088030707060100C0404040EB
:101DD0004040E0050505060000D0A8A8A8A8050514
:101DE00005060000B0C88888880505050600007053
:101DF000888888700507070600FEF0888888F080CC
:101E0000800507070600FE78888888780808050599
:101E100005060000B0C88080800505050600007832
:101E2000807008F00507070600002020F820202019
:101E300018050505060000888888986805050506C8
:101E4000000088888850200505050600008888A8BD
:101E5000A850050505060000885020508805070792
:101E60000600FE8888885020408005050506000091
:101E7000F8102040F80309090601FF204040408087
:101E8000404040200109090602FF80808080808058
:101E90008080800309090601FF80404040204040C7
:101EA000408005030306000248A890FFFFFFFFFFE4
:101EB000FFFFFFFFFFFFFFFFFFFFFFFFFFFFFFFF32
:101EC000FFFFFFFFFFFFFFFFFFFFFFFF0000000618
:101ED00005FF0107070602008000808080808005E2
:101EE00007070600FF2070A8A0A8702005070706B6
:101EF0000000304840E04048B0050505060000A855
:101F0000508850A80507070600008850F820F820E0
:101F1000200107070602008080800080808004087E
:101F20000806010070806090906010E003010106D7
:101F30000107A00607070600007884B4A4B48478DB
:101F400003050506010460A06000E0050505060024
:101F5000002850A05028050303060001F8080803D4
:101F60000101060103E00607070600007884B4A417
:101F7000A48478050101060007F80404040601059D
:101F8000609090600507070600002020F8202000E0
:101F9000F803050506010440A02040E003050506FE
:101FA0000104C0204020C003030306010520408037
:101FB0000507070600FE88888898E88080050808DD
:101FC00006000078E8E8E8682828280202020602ED
:101FD00003C0C00302020601FE20C003050506017E
:101FE0000440C04040E003050506010540A0400054
:101FF000E0050505060000A0502850A0050A0A06C5
:10200000000040C048506050B0507810050A0A06E1
:10201000000040C048506050A8081038050A0A0661
:102020000000C0204830E050B05078100507070687
:10203000000020002020408870050A0A06000040A9
:102040002000708888F8888888050A0A0600001031
:102050002000708888F8888888050A0A0600002011
:102060005000708888F8888888050A0A0600006889
:10207000B000708888F88888880509090600005033
:1020800000708888F8888888050A0A0600002050B1
:1020900020708888F888888805070706000078A0DF
:1020A000A0F0A0A0B80509090600FE708880808015
:1020B00088701060050A0A060000402000F8808041
:1020C000F08080F8050A0A060000102000F88080E1
:1020D000F08080F8050A0A060000205000F8808091
:1020E000F08080F80509090600005000F88080F0B3
:1020F0008080F8030A0A060100804000E04040406A
:102100004040E0030A0A060100204000E040404051
:102110004040E0030A0A06010040A000E0404040C1
:102120004040E0030909060100A000E040404040B3
:1021300040E0050707060000704848E84848700579
:102140000A0A06000068B0008888C8A89888880530
:102150000A0A060000402000708888888888700578
:102160000A0A060000102000708888888888700598
:102170000A0A060000205000708888888888700548
:102180000A0A06000068B000708888888888700590
:102190000909060000500070888888888870050545
:1021A0000506000188502050880509090600FF082F
:1021B0007098A8A8A8C87080050A0A0600004020E8
:1021C0000088888888888870050A0A060000102020
:1021D0000088888888888870050A0A0600002050D0
:1021E00000888888888888700509090600005000E2
:1021F00088888888888870050A0A060000102000F0
:102200008888502020202004070706010080E090E5
:102210009090E080050707060000708890A09088E5
:10222000B00508080600004020007008788878058E
:102230000808060000102000700878887805080853
:10224000060000205000700878887805080806000D
:102250000068B0007008788878050707060000500D
:102260000070087888780508080600002050207063
:1022700008788878050505060000702870A07805A4
:1022800007070600FE708880887010600508080641
:1022900000004020007088F08070050808060000EB
:1022A0001020007088F0807005080806000020509B
:1022B000007088F0807005070706000050007088E5
:1022C000F08070030808060100804000C0404040D4
:1022D000E0030808060100204000C0404040E00341
:1022E000080806010040A000C0404040E003070786
:1022F000060100A000C0404040E0050909060000BA
:102300005020500878888888700508080600006802
:10231000B000B0C888888805080806000040200082
:1023200070888888700508080600001020007088F2
:10233000888870050808060000205000708888888A
:102340007005080806000068B0007088888870056D
:10235000070706000050007088888870050505068C
:1023600000012000F800200505050600007898A867
:10237000C8F005080806000040200088888888709A
:102380000508080600001020008888888870050865
:102390000806000020500088888888700507070616
:1023A000000050008888888870050A0A0600FE1020
:1023B0002000888888502040800509090600FE809A
:1023C00080F0888888F080800509090600FE5000AA
:1023D000888888502040803F005765726B7365691C
:1023E0006E7374656C6C756E67656E0041626272C7
:1023F000656368656E0042657374C3A4746967653C
:102400006E004D343238005765726B7365696E73B8
:1024100074656C6C756E67656E0046696C616D65A0
:102420006E740054656D70657261747572005374DA
:102430006570732F6D6D004A65726B004265736342
:10244000686C65756E6967756E670047657363686C
:1024500077696E6469676B656974005365747A6542
:1024600020486F6D657665727361747A004B6F6E8C
:1024700066696775726174696F6E004B6F6E66692D
:10248000672E2073706569636865726E004B6F6EAE
:102490006669672E206C6164656E00536F6E6465BB
:1024A0006E7665727361747A205A00536F6E64653C
:1024B0006E7665727361747A205A00417573626C2E
:1024C000656E6468C3B6686500417573626C656E5D
:1024D0006468C3B668650061757300616E0042652B
:1024E00074742D4E6976656C6C696572756E6700E3
:1024F00042657474206E6976656C6C696572656E90
:10250000004732380A4732390047323900486F6D88
:10251000652058595A00473238004265776567751B
:102520006E67004B6F6E6669672E20737065696316
:102530006865726E0042657474004265747400448C
:10254000C3BC73650044C3BC7365004CC3BC6674F4
:102550006572004CC3BC66746572004B6F6E666931
:102560006775726174696F6E004B6F6E6669672E76
:10257000206C6164656E005374616E64617264778F
:1025800065727465206C6164656E004B6F6E666980
:10259000672E2073706569636865726E00414253EF
:1025A0002045696E7374656C6C756E67656E00505E
:1025B0004C412045696E7374656C6C756E67656E11
:1025C00000536F6E64656E7665727361747A205A1B
:1025D00000536F6E64656E7665727361747A205A0B
:1025E000004572772E2045696E7374656C6C756E4C
:1025F00067656E0048617570746D656EC3BC003FA1
:102600000053442D447275636B206162627265638E
:1026100068656E005A7572C3BC636B0053746F704B
:10262000004D323500447275636B207061757369BB
:102630006572742E2E2E0053442D447275636B20E8
:1026400070617573696572656E004D323400447255
:1026500075636B20762E2053442D4B617274650098
:1026600053442D4B617274652067657461757363A3
:102670006874004D3231004B6F6E66696775726128
:1026800074696F6E0054656D706572617475720067
:102690004265776567756E670053442D44727563B4
:1026A0006B20666F72747365747A656E004B656932
:1026B0006E652053442D4B61727465004A757374C6
:1026C000696572756E670053442D447275636B20A3
:1026D00061626272656368656E0053442D44727571
:1026E000636B2070617573696572656E00496E6613
:1026F0006F004265776567652058004265776567BA
:1027000065205900426577656765205A0042657704
:1027100065676520457874727564657200426577F7
:1027200065676520457874727564657200426577E7
:10273000656765205A0042657765676520590042E4
:10274000657765676520580061757300616E005399
:102750006F6674776172652D456E6473746F707007
:10276000004265776567756E67004D6F746F7265BF
:102770006E206465616B746976696572656E004D83
:10278000383400426574742D4E6976656C6C6965E9
:1027900072756E67005A2D41636873656E206175AE
:1027A00073676C65696368656E0047333400486F12
:1027B0006D65205A00473238205A00486F6D6520F9
:1027C0005900473238205900486F6D65205800473E
:1027D0003238205800486F6D652058595A004732EA
:1027E000380041636873656E206265776567656E62
:1027F0000048617570746D656EC3BC003F00537412
:102800006172746520447275636B2000416262726C
:10281000656368656E00447275636B656E00436145
:102820006E6E6F7420656E74657220737562646974
:10283000723A2000022E2E0048617570746D656E2C
:10284000C3BC00504C4120457874722E20566F72E4
:1028500077C3A4726D656E00504C4120426574745C
:1028600020566F7277C3A4726D656E00504C412084
:10287000566F7277C3A4726D656E0054656D706596
:1028800072617475720041425320457874722E2033
:10289000566F7277C3A4726D656E00414253204239
:1028A00065747420566F7277C3A4726D656E0041B3
:1028B000425320566F7277C3A4726D656E005465E3
:1028C0006D706572617475720041626BC3BC686C37
:1028D000656E0041425320566F7277C3A4726D65D6
:1028E0006E00504C4120566F7277C3A4726D656EB6
:1028F000004CC3BC66746572004CC3BC66746572E0
:10290000004265747400426574740044C3BC73650E
:102910000044C3BC73650048617570746D656EC317
:10292000BC004261627973746570205A0042616232
:102930007973746570205A00466C75737372617494
:102940006500466C75737372617465004CC3BC6638
:10295000746572004CC3BC66746572004265747421
:1029600000426574740044C3BC73650044C3BC7307
:1029700065004765736368772E0047657363687702
:102980002E0048617570746D656EC3BC00206D616A
:10299000783A00206D696E3A004178697320000032
:1029A00000524300003E430000344300000000009A
:1029B00000000000000000290A002062797465739D
:1029C0003B20637263200053657474696E677320E3
:1029D00053746F726564202800454550524F4D2056
:1029E0006461746173697A65206572726F722E0A10
:1029F00000290A002062797465733B2063726320AA
:102A0000002073746F7265642073657474696E67F7
:102A100073207265747269657665642028002028C9
:102A200063616C63756C6174656429210A002021FF
:102A30003D2000454550524F4D20435243206D6983
:102A4000736D61746368202D202873746F726564E0
:102A50002920002053697A653A2000496E64657820
:102A60003A2000204D61726C696E3D563638290A55
:102A700000454550524F4D2076657273696F6E2048
:102A80006D69736D617463682028454550524F4DE0
:102A90003D0048617264636F6465642044656661EB
:102AA000756C742053657474696E6773204C6F6124
:102AB0006465640A00E8030000E8030000C8000041
:102AC0000088130000000048430000484300004015
:102AD000410000F0420000A0420000A0420000C8F7
:102AE0004300000C433A0A0020286D6D290020287D
:102AF000696E290020204D383531205A005A2D505A
:102B0000726F6265204F6666736574002044002012
:102B1000490020204D33303420500020440020490B
:102B20000020204D3330312050005049442073653F
:102B30007474696E67733A0A0020460020420020D0
:102B4000480020204D3134352053004D61746572AA
:102B500069616C2068656174757020706172616D67
:102B600065746572733A0A00204A002020473239A2
:102B70002057204900205A0020204D343230205365
:102B8000004175746F20426564204C6576656C6900
:102B90006E673A0A00205A0020590020204D32303A
:102BA00036205800486F6D65206F66667365743A0D
:102BB0000A00204500205A002059002058002054C7
:102BC0000020530020204D32303520420020453C6B
:102BD0006D61785F655F6A65726B3E0020583C6D81
:102BE00061785F785F6A65726B3E20593C6D6178F1
:102BF0005F795F6A65726B3E205A3C6D61785F7ADF
:102C00005F6A65726B3E00416476616E6365643A2B
:102C100020423C6D696E5F7365676D656E745F74AD
:102C2000696D655F75733E20533C6D696E5F6665C7
:102C30006564726174653E20543C6D696E5F7472A8
:102C40006176656C5F66656564726174653E0020DF
:102C5000540020520020204D323034205000416377
:102C600063656C65726174696F6E2028756E697436
:102C7000732F7332293A20503C7072696E745F6111
:102C80006363656C3E20523C726574726163745F6D
:102C9000616363656C3E20543C74726176656C5F61
:102CA000616363656C3E0A00204500205A0020598C
:102CB0000020204D3230312058004D6178696D750B
:102CC0006D20416363656C65726174696F6E202865
:102CD000756E6974732F7332293A0A0020450020FB
:102CE0005A0020590020204D3230332058004D61C9
:102CF00078696D756D2066656564726174657320B1
:102D000028756E6974732F73293A0A0053746570BD
:102D1000732070657220756E69743A0A0020204D28
:102D20003230302044300A0020204D3230302044F0
:102D3000002044697361626C65640A0046696C61D5
:102D40006D656E742073657474696E67733A0020E4
:102D5000204D3134392043203B20556E6974732057
:102D6000696E2043656C736975730A00203B00200F
:102D7000204732006F70656E0054524947474552F4
:102D80004544003A20007A5F6D696E00795F6D619D
:102D90007800785F6D696E005265706F7274696E4D
:102DA0006720656E6473746F7020737461747573DB
:102DB0000A00205A3A0020593A0020436F756E7479
:102DC00020583A0020453A00205A3A0020593A004B
:102DD000583A00203A2073796E635F706C616E5FC1
:102DE000706F736974696F6E0A0020206375727268
:102DF000656E745F706F736974696F6E3D002C202F
:102E0000002C20003C3C3C20646F5F626C6F636B65
:102E1000696E675F6D6F76655F746F0A003E3E3E58
:102E200020646F5F626C6F636B696E675F6D6F7656
:102E3000655F746F0020746F6F206C6F6E67206524
:102E40007874727573696F6E2070726576656E74D2
:102E500065640A0020636F6C642065787472757312
:102E6000696F6E2070726576656E7465640A0048DD
:102E70006F6D696E672067657363686569746572F5
:102E80007400290A003C3C3C20646F5F686F6D69E8
:102E90006E675F6D6F76652800290A005D005B0034
:102EA0002C20002C20003E3E3E20646F5F686F6D3A
:102EB000696E675F6D6F7665280020706F73697447
:102EC000696F6E5F7368696674203D200020686FCB
:102ED0006D655F6F6666736574203D20004178699B
:102EE000732000290A003C3C3C207365745F6178C4
:102EF00069735F69735F61745F686F6D6528002037
:102F00003A200A00202063757272656E745F706FDC
:102F1000736974696F6E3D005D203D20003E20683E
:102F20006F6D655F6F66667365745B002A2A2A2081
:102F30005A20484F4D454420574954482050524F3D
:102F4000424520285A5F4D494E5F50524F42455FDF
:102F5000555345535F5A5F4D494E5F454E44535458
:102F60004F505F50494E29202A2A2A0A3E207A7063
:102F7000726F62655F7A6F6666736574203D2000CC
:102F80000000000000003E4300000000290A003E4F
:102F90003E3E207365745F617869735F69735F613A
:102FA000745F686F6D652800000048420000484269
:102FB0000000C0405761726E696E673A20486F6DBD
:102FC000696E672042756D702044697669736F720F
:102FD000203C20310A00020204290A003C3C3C202B
:102FE000686F6D65617869732800203A203E204142
:102FF00046544552207365745F617869735F6973E5
:103000005F61745F686F6D650A002020637572727E
:10301000656E745F706F736974696F6E3D00486FA1
:103020006D65203220536C6F773A0A004D6F7665DC
:1030300020417761793A0A000000A0400000A040DA
:10304000000000400000524300003E4300003443B3
:10305000486F6D65203120466173743A0A00FF01A4
:10306000FF290A003E3E3E20686F6D6561786973F6
:103070002800290A00646F5F70726F62655F726179
:1030800069736528006465706C6F793A2000203A96
:10309000207365745F70726F62655F6465706C6FDA
:1030A0007965640A00202063757272656E745F70C2
:1030B0006F736974696F6E3D00203A203C3C3C2080
:1030C000646F5F70726F62655F6D6F76650A002076
:1030D0002063757272656E745F706F736974696F67
:1030E0006E3D00203A203E3E3E20646F5F70726F5E
:1030F00062655F6D6F76650A002020637572726588
:103100006E745F706F736974696F6E3D0024F4D4E0
:103110003050C38E20C2A24017828B7011127A9158
:103120000D816CD90AA861E108C75866076151434F
:10313000061E4B5D05C145A7041A411104093D98BF
:1031400003713931034036DB0265339102D43054C8
:1031500002802E1D02632CEE01752AC501B028A045
:1031600001102781018F2564012B244B01E02234BB
:1031700001AC211F018D200D01801FFC00841EED7C
:1031800000971DDF00B81CD200E61BC600201BBC48
:1031900000641AB200B219A8000A19A0006A1899AE
:1031A00000D117910040178B00B516840031167EB0
:1031B00000B31579003A157300C7146F0058146AEC
:1031C00000EE1366008813630025135E00C7125BD0
:1031D000006C12570015125400C111510070114FAC
:1031E0000021114B00D61049008D104700461044B5
:1031F0000002104200C00F4000800F3E00420F3C12
:1032000000060F3B00CB0E3800930E37005C0E35E6
:1032100000270E3400F30D3200C10D3100900D3047
:1032200000600D2E00320D2D00050D2C00D90C2B49
:1032300000AE0C2900850C29005C0C2700350C27FA
:10324000000E0C2600E80B2400C40B2400A00B2366
:10325000007D0B23005A0B2100390B2100180B2095
:1032600000F80A1F00D90A1E00BB0A1E009D0A1D95
:1032700000800A1D00630A1C00470A1B002C0A1B61
:1032800000110A1A00F7091A00DD091900C409190A
:1032900000AB091900920917007B09180063091790
:1032A000004C09160036091600200916000A0915F7
:1032B00000F5081500E0081400CC081400B8081444
:1032C00000A4081400900813007D0812006B081376
:1032D0000058081200460812003408110023081193
:1032E000001208110001081100F0071000E007109B
:1032F00000D0071000C0071000B0070F00A1071092
:103300000091070E0083070F0074070F0065070E7A
:103310000057070E0049070E003B070D002E070E51
:103320000020070D0013070D0006070D00F9060C1D
:1033300000ED060D00E0060C00D4060C00C8060CDB
:1033400000BC060C00B0060C00A4060B0099060C8D
:10335000008D060B0082060B0077060B006C060B37
:103360000061060A0057060B004C060A0042060AD6
:103370000038060A002E060A0024060A001A060A69
:10338000001006090007060A00FD050900F40509FA
:1033900000EB050900E2050900D9050900D005097F
:1033A00000C7050900BE050900B5050800AD050800
:1033B00000A50509009C050800940508008C050877
:1033C00000840508007C050800740508006C0507EA
:1033D00000650508005D050700560508004E050755
:1033E00000470507004005080038050700310507BC
:1033F000002A050700230507001C0506001605071F
:10340000000F0507000805060002050700FB04067B
:1034100000F5040700EE040600E8040600E20407D5
:1034200000DB040600D5040600CF040600C904062C
:1034300000C3040600BD040600B7040600B104057D
:1034400000AC040600A6040600A00405009B0406C8
:103450000095040500900406008A04050085040513
:1034600000800406007A0405007504050070040558
:10347000006B04050066040500610405005C04059A
:103480000057040500520405004D040500480405DA
:1034900000430405003E0404003A04050035040519
:1034A00000300404002C0405002704040023040554
:1034B000001E0404001A040400160405001104048C
:1034C000000D0404000904050004040400000404C1
:1034D00000FC030400F8030400F4030400F00304F8
:1034E00000EC030400E8030400E4030400E0030428
:1034F00000DC030400D8030400D4030400D0030458
:1035000000CC030400C8030300C503030024F40433
:10351000D9201BC40C5C0E9804C4095F02650771B6
:1035200001F405F900FB04B30048048700C10369F6
:10353000005803550003034500BE023A00840231DF
:103540000053022A002902250004022000E4011C85
:1035500000C8011900AF011700980114008401137D
:1035600000710110006101100051010E0043010DB6
:103570000036010B002B010B0020010B0015010987
:10358000000C01090003010800FB000800F300081B
:1035900000EB000700E4000600DE000600D800068D
:1035A00000D2000600CC000500C7000500C20005DF
:1035B00000BD000400B9000400B5000400B100041F
:1035C00000AD000400A9000400A5000300A2000350
:1035D000009F0004009B0003009800030095000278
:1035E0000093000300900003008D0002008B000395
:1035F00000880002008600020084000300810002AF
:10360000007F0002007D0002007B000200790002C2
:1036100000770001007600020074000200720001D1
:1036200000710002006F0002006D0001006C0002DA
:10363000006A0001006900020067000100660001E5
:1036400000650001006400020062000100610001E9
:1036500000600001005F0002005D0001005C0001ED
:10366000005B0001005A00010059000100580001F0
:1036700000570001005600010055000100540001F0
:1036800000530000005300010052000100510001EE
:1036900000500001004F0001004E0000004E0001EC
:1036A000004D0001004C0001004B0000004B0001E8
:1036B000004A0001004900010048000000480001E4
:1036C00000470001004600000046000100450000E0
:1036D00000450001004400010043000000430001D8
:1036E00000420000004200010041000000410001D2
:1036F00000400001003F0000003F0001003E0000CC
:10370000003E0001003D0000003D0001003C0000C3
:10371000003C0000003C0001003B0000003B0001B9
:10372000003A0000003A00010039000000390001B1
:1037300000380000003800000038000100370000A9
:10374000003700010036000000360000003600019E
:103750000035000000350000003500010034000095
:10376000003400000034000100330000003300008A
:10377000003300010032000000320000003200017E
:103780000031000000310000003100010030000075
:103790000030000000300001002F0000002F00006A
:1037A000002F0000002F0001002E0000002E00005E
:1037B000002E0001002D0000002D0000002D000053
:1037C000002D0001002C0000002C0000002C000047
:1037D000002C0001002B0000002B0000002B00003B
:1037E000002B0001002A0000002A0000002A00002F
:1037F000002A000100290000002900000029000023
:103800000029000000290001002800000028000015
:103810000028000000280000002800010027000008
:1038200000270000002700000027000000270001FB
:1038300000260000002600000026000000260000F0
:1038400000260001002500000025000000250000E2
:1038500000250000002500000025000100240000D4
:1038600000240000002400000024000000240001C7
:1038700000230000002300000023000000230000BC
:1038800000230000002300000023000100220000AC
:1038900000220000002200000022000000220000A0
:1038A0000022000100210000002100000021000092
:1038B0000021000000210000002100000021000183
:1038C0000020000000200000002000000020000078
:1038D0000020000000200000002000000020000167
:1038E000001F0000001F0000001F0000001F00005C
:1038F000001F0000001F0000001F0001001E00004C
:10390000001E0000001E0000001E00000004370022
:10391000001E290000511B00005810000010090073
:1039200000CC0400007802000041010000626564E0
:10393000002C2073797374656D2073746F707065DB
:103940006421204865617465725F49443A200042F1
:10395000657474206865697A656E206665686C6751
:10396000652E0048656174696E67206661696C65E3
:1039700064004245545408204E494348542045525F
:1039800052454943485400546865726D616C205239
:10399000756E61776179004531204845495A454E39
:1039A000204552464F4C474C4F530048656174695F
:1039B0006E67206661696C65640045312008204EA1
:1039C000494348542045525245494348540054689D
:1039D00065726D616C2052756E6177617900453159
:1039E0002008204E494348542045525245494348F7
:1039F00054004245545408204E49434854204552EF
:103A000052454943485400546865726D616C2052B8
:103A1000756E61776179004531200820C39C42456D
:103A20005253434852495454454E00424554542041
:103A30000820C39C42455253434852495454454E72
:103A4000004D415854454D50207472696767657246
:103A50006564004531200820554E54455253434873
:103A600052495454454E0042455454200820554E66
:103A700054455253434852495454454E004D494EC3
:103A800054454D5020747269676765726564004DD6
:103A9000383420582059205A204500202F00204239
:103AA000403A0020403A007C3C3E5E2B3D3F2F5B7D
:103AB0005D3B2C2A225C0070012C0190012701B093
:103AC000012201C0011D01F0011801100213013093
:103AD000020E016002090190020401C002FF000011
:103AE00003FA004003F5008003F000D003EB002050
:103AF00004E6007004E100E004DC004005D700C0EB
:103B000005D2004006CD00D006C8008007C30030B3
:103B100008BE00F008B900C009B400B00AAF00B098
:103B20000BAA00D00CA500000EA000500F9B00C0F7
:103B30001096005012910000148C00C0158700B040
:103B4000178200B0197D00D01B7800001E73004062
:103B5000206E0090226900F024640040275F0090EE
:103B6000295A00E02B5500102E500020304B001039
:103B7000324600E033410090353C0010373700708A
:103B8000383200A0392D00B03A2800A03B23006055
:103B90003C1E00103D1900903D1400103E0F0070B7
:103BA0003E0A00C03E0500003F0000403FFBFF8092
:103BB0003FF6FFC03FF1FF43616E6E6F74206F7080
:103BC000656E2073756264697220005344206361DE
:103BD0007264206F6B0A006F70656E526F6F742095
:103BE0006661696C65640A00766F6C756D652E6937
:103BF0006E6974206661696C65640A0053442069CB
:103C00006E6974206661696C0A004D3234004D3271
:103C1000332025730057726974696E6720746F20B2
:103C200066696C653A20002E0A006F70656E20662A
:103C300061696C65642C2046696C653A20002E0A27
:103C4000006F70656E206661696C65642C20466942
:103C50006C653A200046696C652073656C65637419
:103C600065640A002053697A653A200046696C65EC
:103C7000206F70656E65643A200066726573680037
:103C8000646F696E67002066696C653A20004E6F4C
:103C9000772000454E4420535542524F5554494ECB
:103CA000450A002220706F73002220706172656ED9
:103CB000743A2200535542524F5554494E452043C1
:103CC000414C4C207461726765743A2200747279B9
:103CD000696E6720746F2063616C6C207375622D50
:103CE00067636F64652066696C65732077697468C3
:103CF00020746F6F206D616E79206C6576656C73D2
:103D00002E204D4158206C6576656C2069733A31E0
:103D10000A0000002100240027002A002D003000A6
:103D2000330001010000040107010A010000220024
:103D3000250028002B002E00310034000201000075
:103D4000050108010B0100002000230026002900C6
:103D50002C002F00320000010000030106010901C0
:103D600005050505070508080808020202020A0AF7
:103D70000808040404040101010101010101030315
:103D8000030303030303040707070C0C0C0C0C0CC0
:103D90000C0C0202020206060606060606060B0BBD
:103DA0000B0B0B0B0B0B01021020200808102040FE
:103DB00010204080020102010804020101020408EF
:103DC000102040808040201008040201800402017D
:103DD00080402010080402010804020101020408C6
:103DE00010204080010204081020408000000A0BCF
:103DF00002090C0D0E08070304010000000000007A
:103E000000000000000000000000000000000000B2
:103E1000000000000000000012111000000000006F
:103E20000000000000000000000000000000000092
:103E300000000201FFFFFFFFFFFFFFFFFFFFFFFF8B
:103E4000FF0FFFFFFFFFFFFFFFFFFFFFFFFFFF1E53
:103E50000000000000000000000007FFFF38000025
:103E6000000000000000000003FFFF7000000000E1
:103E700000000000000001FFFF60000000000000E3
:103E80000000000000FFFF600000000000000000D4
:103E90000000007FFFC0000000000000000078006C
:103EA000003FFFC00FC0FC00000000007818001F9A
:103EB000FFC03FE1FF0000000000783C000FFFC0A2
:103EC0007FF3FF8000000000783C0007FFC0FFFF89
:103ED000FFC000000000783C0003FFC1F87F87E0CE
:103EE0000000000078000001FFC1F03F03E0000087
:103EF000000078000000FFC1E01E01E01F0003E0A9
:103F0000783C03F07FC1E01E01E07FC00FF8783CF1
:103F100007FC3FC1E01E01E1FFE01FFC783C0FFE03
:103F20001FC1E01E01E3FFF03FFE783C1FFE0FC102
:103F3000E01E01E3F3F83F3E783C3F3F07C1E01E3F
:103F400001E7E0FC7C1F783C3E1F07C1E01E01E753
:103F5000C07C7C0F783C3C0F03C1E01E01E7807CF5
:103F6000780F783C3C0F03C1E01E01E7803C7800ED
:103F7000783C3C0F03C1E01E01E7803C7800783CB0
:103F80003C0F03C1E01E01E7803C7800783C3C0F09
:103F900003C1E01E01E7C03C7800783C3C0F03C140
:103FA000E01E01E3E03C78007C3C3C0F03C1E01ED6
:103FB00001E3FF3FF8007FBC3C0F03C1E01E01E1BD
:103FC000FF3FF8003FBFFC0F03C1E01E01E0FF3FD1
:103FD000F8001FBFFC0F03C1E01E01E07F3FF800A7
:103FE0000FBFFC0F03600000000000000000000095
:103FF000000007600000000000000000000000005A
:1040000006700000000000000000000000000E38F4
:104010000000000000000000000000001C1E000066
:1040200000000000000000000000780FFFFFFFFF0D
:10403000FFFFFFFFFFFFFFFFF001FFFFFFFFFFFF9D
:10404000FFFFFFFFFFFF802020506C616E6E6572E6
:1040500042756666657242797465733A200020463F
:10406000726565204D656D6F72793A2000436F6D02
:1040700070696C65643A204A756E203130203230A8
:1040800032320A00207C20417574686F723A2046F3
:1040900061626C61622050727573612069332046E1
:1040A00072616E6B656E737465696E0A00323031D1
:1040B000392D30372D313500204C61737420557007
:1040C00064617465643A20006275676669782D32B0
:1040D0002E302E780A004D61726C696E0020536F8D
:1040E0006674776172652052657365740A002057A3
:1040F00061746368646F672052657365740A002099
:1041000042726F776E206F75742052657365740A02
:10411000002045787465726E616C20526573657419
:104120000A00506F77657255700A0073746172747B
:104130000A006175746F25632E67006572726F7275
:104140002077726974696E6720746F2066696C6588
:104150000A00446F6E6520736176696E6720666938
:104160006C652E0A004D323900456E6473746F70B1
:104170007020256320256320256320256300205AB5
:104180003A0020593A0020583A00656E6473746F03
:104190007073206869743A200047323858590020FB
:1041A000302C303235206D6D0020302C3120202015
:1041B0006D6D0020312C302020206D6D0031302CB1
:1041C000302020206D6D0041636873656E2062654C
:1041D000776567656E00486F74656E64207A752038
:1041E0006B616C7400426577656765204578747211
:1041F0007564657200426577656765205A0042659F
:1042000077656765205900426577656765205800C6
:10421000203A203C3C3C2072756E5F7A5F70726F72
:1042200062650A00202063757272656E745F706F3C
:10423000736974696F6E3D002044697363726570C1
:10424000616E63793A00326E642050726F6265204D
:104250005A3A00203A203C3C3C2072756E5F7A5FEF
:1042600070726F62650A00202063757272656E74E9
:104270005F706F736974696F6E3D00534C4F5720C8
:1042800050726F6265206661696C210A0031737437
:104290002050726F6265205A3A00203A203C3C3C24
:1042A0002072756E5F7A5F70726F62650A002020FF
:1042B00063757272656E745F706F736974696F6E27
:1042C0003D00464153542050726F6265206661691B
:1042D0006C210A00203A203E3E3E2072756E5F7AC5
:1042E0005F70726F62650A00202063757272656E7E
:1042F000745F706F736974696F6E3D003C3C3C2065
:1043000070726F62655F70740A0050726F62696EDE
:10431000672067657363686569746572740A005025
:10432000726F62696E67206765736368656974653B
:10433000727400203A200A00202063757272656E44
:10434000745F706F736974696F6E3D005F72656C46
:104350006174697665290A002C20002C20002C202D
:10436000002C20003E3E3E2070726F62655F7074CC
:104370002800566F72686572202573257325732097
:10438000686F6D656E0020686F6D656E0A00566F10
:10439000726865722000220A00556E6B6E6F776E30
:1043A00020636F6D6D616E643A20220020746F6F20
:1043B000206C6F6E6720657874727573696F6E20FC
:1043C00070726576656E7465640A0020636F6C6454
:1043D00020657874727573696F6E2070726576658A
:1043E0006E7465640A00204500205A0020590020A0
:1043F0004D39322058002E0A006F70656E206661BC
:10440000696C65642C2046696C653A200000DB010C
:10441000BB0111241FBECFEFD1E2DEBFCDBF00E054
:104420000CBF14E0A0E0B2E0EEE3F2E502E00BBF67
:1044300002C007900D92AA32B107D9F725E1AAE28E
:10444000B4E001C01D92A63EB207E1F712E2C8E057
:10445000D2E200E006C021970109802FFE010F94EF
:104460004628C730D10780E00807A9F70F949514B4
:104470000D940D290C940000CF93DF93EC01CB0138
:10448000BA010F94681F20E030E048EC51E40F942B
:10449000C71F0F942B25688379838A839B83DF91C1
:1044A000CF910895CF93DF93EC01CB01BA010F9424
:1044B000681F20E030E048EC52E40F94C71F0F94CF
:1044C0002B25688379838A839B83DF91CF9108951D
:1044D000CF93DF93EC01CB01BA010F94681F2AE060
:1044E00037ED43E25CE30F94C71F688379838A83C7
:1044F0009B83DF91CF910895CF93DF93EC01CB01A4
:10450000BA010F94681F2AE037ED43E25CE30F9491
:10451000C71F688379838A839B83DF91CF91089536
:10452000CF93DF93EC01CB01BA010F94681F2DEC00
:104530003CEC4CEC5DE30F94C71F688379838A835E
:104540009B83DF91CF910895CF93DF93EC01CB0153
:10455000BA010F94681F20E030E048EC51E40F945A
:10456000C71F688379838A839B83DF91CF910895E6
:10457000CF93DF93EC01CB01BA010F94681F20E0C9
:1045800030E048EC52E40F94C71F688379838A8334
:104590009B83DF91CF910895CF93DF93EC01CB0103
:1045A000BA010F94681F2FE632E143E85AE30F94F3
:1045B000C71F688379838A839B83DF91CF91089596
:1045C000CF93DF93EC01CB01BA010F94681F68838E
:1045D00079838A839B83DF91CF910895CF93DF9373
:1045E000EC01CB01BA010F94681F0F942B2568834F
:1045F000DF91CF910895CF93DF93EC01CB01BA0106
:104600000F94681F0F94242579836883DF91CF91DD
:104610000895FC01A081B1811C92A281B3818C918B
:104620008F5F8C930280F381E02D90818CE0989FC6
:10463000800D1124EAEEF2E113AE84AF0895FC017F
:1046400084910895FC018081089511989091020150
:1046500087FD9095917090930001119A0000119838
:104660009091020186FD9095917090930001119AAE
:10467000000011989091020185FD909591709093A2
:104680000001119A000011989091020184FD90950B
:10469000917090930001119A00001198909102017D
:1046A00083FD9095917090930001119A00001198EC
:1046B0009091020182FD9095917090930001119A62
:1046C000000011989091020181FD90959170909356
:1046D0000001119A0000119880910201817080936D
:1046E0000001119A00000895089590E080E0089577
:1046F0004F925F926F927F928F929F92AF92BF92F2
:10470000CF92DF92EF92FF92CF934B015C01690150
:104710007A0120E030E040EA50E4C701B6010F948E
:10472000B7232B013C0127E137EB41ED58EB0F9408
:10473000182687FD50C027E030E04EE353E4C30164
:10474000B2010F94611F18160CF445C020E030E050
:1047500040EC51E4C501B4010F94B7232B013C0197
:1047600027E137EB41ED58EB0F94182687FD33C056
:1047700027E030E042E553E4C301B2010F94611F2A
:1047800018164CF12CEC3FEF4FEE51E4C501B4018B
:104790000F94182687FD1FC027E030E044E353E460
:1047A000C501B4010F94611F1816ACF02CEC3FEF5B
:1047B0004FEE51E4C701B6010F94182687FD0BC0D8
:1047C000C1E027E030E040E253E4C701B6010F94B6
:1047D000611F18160CF4C0E08C2FCF91FF90EF9062
:1047E000DF90CF90BF90AF909F908F907F906F9011
:1047F0005F904F9008959091D508E92FF0E0E85D23
:10480000FC4E80839F5F943040F49093D508809154
:104810005A0A8F5F80935A0A08951092D508F7CFED
:104820008F929F92AF92BF92CF92DF92EF92FF92C0
:10483000CF93DF93D82FC62F882309F182E0D4309D
:10484000F9F0662309F466C0E2E0643009F463C05D
:104850002D2F2150330BC901220F331F820F931FBD
:10486000C150DD0BC80FD91FCC0FDD1FCC0FDD1FD2
:10487000C751D94F688179818A819B812BC080E0A3
:104880009FEF9C0F933088F5D0E09E0121503109B5
:1048900090E0FC01EE0FFF1FE80FF91FE20FF31F7E
:1048A000EE0FFF1FEE0FFF1FE751F94F608171817F
:1048B000828193819B01AC010F94B823CC0FDD1F43
:1048C000CC0FDD1FCF50D94F288139814A815B81C0
:1048D0000F94B723DF91CF91FF90EF90DF90CF90AF
:1048E000BF90AF909F908F9008956C2F8F5F0E9424
:1048F00010246B017C016C2F82E00E9410244B017C
:104900005C01A7019601C701B6010F94B823A50168
:104910009401DECFE0E08FEF8D0F833038F52D2F3F
:104920002150330BE901B901660F771F620F731F26
:10493000E60FF72FF11DEE0FFF1FEE0FFF1FE751E0
:10494000F94F60817181828193819B01AC010F9449
:10495000B8232CE02C9FF0012D9FF00D1124E7517E
:10496000F94F2481358146815781B2CF61E06E0FC6
:104970008D2F0E9410246B017C0162E08D2FBDCF32
:1049800097E0899FF0011124E60FF11DEE0FFF1F44
:10499000EE0FFF1FEB5AFB4F608171818281938183
:1049A000089590E0FC01EE0FFF1FE80FF91FE60FDE
:1049B000F11DEE0FFF1FEE0FFF1FE751F94F608152
:1049C00071818281938108950C9449A6CF93DF93DE
:1049D00000D01F92CDB7DEB70F94681F2DEC3CECD2
:1049E0004CEC5DE30F94C71F69837A838B839C83B0
:1049F000CE0101960E9433BC0F900F900F900F9044
:104A0000DF91CF910895CF93DF9300D01F92CDB760
:104A1000DEB70F94681F2AE037ED43E25CE30F94A2
:104A2000C71F69837A838B839C83CE0101960E9482
:104A3000E4BC0F900F900F900F90DF91CF910895ED
:104A40000C94FBA5CF93DF9300D01F92CDB7DEB7B8
:104A50000F94681F20E030E048EC51E40F94C71F2A
:104A600069837A838B839C83CE0101960E9483BDE8
:104A70000F900F900F900F90DF91CF910895CF93EB
:104A8000DF9300D01F92CDB7DEB70F94681F20E0F0
:104A900030E048EC52E40F94C71F69837A838B831C
:104AA0009C83CE0101960E9483BD0F900F900F90C2
:104AB0000F90DF91CF910895CF93DF9300D01F9295
:104AC000CDB7DEB70F942B250F94661F69837A83C9
:104AD0008B839C83CE0101960E9483BD0F900F9023
:104AE0000F900F90DF91CF9108950F94681F20E0F1
:104AF00030E048EC51E40F94C71F0C945C250F94F0
:104B0000681F20E030E048EC52E40F94C71F0C947B
:104B10005C25CF93DF9300D01F92CDB7DEB70F9403
:104B2000681F2AE037ED43E25CE30F94C71F6983F7
:104B30007A838B839C83CE0101960E94D4BF0F9011
:104B40000F900F900F90DF91CF910895CF93DF9347
:104B500000D01F92CDB7DEB70F94681F2FE632E169
:104B600043E85AE30F94C71F69837A838B839C833E
:104B700060E2CE0101960E9409BE0F900F900F9047
:104B80000F90DF91CF9108950F94681F0F942B25FC
:104B9000862F0C94FDC40F94681F0F942425CB011D
:104BA0000C9487C1AF92BF92CF92DF92EF92FF92A7
:104BB0000F931F93CF93DF936B01E9014A3009F400
:104BC000C1C0453109F073C0DB011296ED91FC9133
:104BD000F280C681D7818091020180958270809396
:104BE000000188E28A950000E9F7BF2CB29420EF1B
:104BF000B22230E1A32EAF0C48E2E42E88EF0E94EF
:104C000025238E2D8A950000E9F7BFE1BF1508F432
:104C100085C08F2D807780680E9425238B2D0E9470
:104C200025238E2D8A950000E9F780E80E94252330
:104C300080E00E9425238E2D8A950000E9F78AEFF7
:104C40000E9425238E2D8A950000E9F78E01005FD2
:104C50001F4F8881807F0E94252389918295807FC4
:104C60000E942523C017D107A1F78E2D8A95000039
:104C7000E9F7F394E0E1BE0EFA10C0CF8091020193
:104C8000827080930001D6011296CD91DC91CE0105
:104C90000F9450018111F7C1DF91CF911F910F91B6
:104CA000FF90EF90DF90CF90BF90AF900895FB0101
:104CB00002811381423309F4A1C108F4A5C146342D
:104CC00009F492C1473409F495C14B3329F5898120
:104CD0002B81D80112966C91129713964C9121302A
:104CE00009F4E8C1233009F0B2C138EF380F582F6A
:104CF00091E0431708F490E041E0531708F040E0DA
:104D000031E0561708F430E0592F542B352309F0C1
:104D1000C6C1942309F0C3C181E0BECF80EE8F0DE0
:104D20008068807F0E9425238F2D8295807F0E943E
:104D300025238E2D8A950000E9F780E80E9425231F
:104D400080E877CF8091010182608093010180919A
:104D50000201827080930001809101018160809343
:104D6000010180910201817080930001099A119ADA
:104D700080910201809582708093000188E28A957B
:104D80000000E9F788E790E0CEE9DFE0FE01319727
:104D9000F1F70197D9F788EF0E94252318E2812FB8
:104DA0008A950000E9F780E20E94252380E00E94B6
:104DB0002523812F8A950000E9F780E00E942523B2
:104DC00080E80E942523812F8A950000E9F780E082
:104DD0000E94252380E10E942523812F8A950000CF
:104DE000E9F7CE010197F1F7CE010197F1F7CE0176
:104DF0000197F1F7CE010197F1F7CE010197F1F795
:104E0000CE010197F1F7CE010197F1F7CE0101979D
:104E1000F1F7CE010197F1F7CE010197F1F7CE013D
:104E20000197F1F7CE010197F1F7CE010197F1F764
:104E3000CE010197F1F72197F1F780E20E94252337
:104E400080E40E942523812F8A950000E9F780E203
:104E50000E94252380E60E9425231A950000E9F789
:104E600010E0D0E0C8E28D2F807780680E94252373
:104E7000812F0E9425238C2F8A950000E9F780E876
:104E80000E94252380E00E9425238C2F8A95000014
:104E9000E9F78AEF0E9425238C2F8A950000E9F715
:104EA00090E2119880910201817080930001119A23
:104EB0000000119880910201817080930001119A85
:104EC0000000119880910201817080930001119A75
:104ED0000000119880910201817080930001119A65
:104EE0000000119880910201817080930001119A55
:104EF0000000119880910201817080930001119A45
:104F00000000119880910201817080930001119A34
:104F10000000119880910201817080930001119A24
:104F20000000119880910201817080930001119A14
:104F30000000119880910201817080930001119A04
:104F40000000119880910201817080930001119AF4
:104F50000000119880910201817080930001119AE4
:104F60000000119880910201817080930001119AD4
:104F70000000119880910201817080930001119AC4
:104F80000000119880910201817080930001119AB4
:104F90000000119880910201817080930001119AA4
:104FA00000008C2F8A950000E9F7915009F079CF25
:104FB00088EF0E9425238C2F8A950000E9F7DF5F98
:104FC000105FD03209F04FCF80E00E94252380ECA3
:104FD0000E942523CA950000E9F7809102018270A2
:104FE0008093000181E058CED80115968C9188837A
:104FF00081E052CEF80181818883FACFB901C801DE
:105000000F943A0181E048CE443171F0473109F004
:1050100083CE1882F80182818983858181508A83B9
:1050200083818B8381E038CED80115964C911597FA
:1050300050E0440F551F70E060E016968D919C91F2
:105040000F946C28C8010F94660181E025CE4817A3
:1050500008F462CE861708F45FCEFA80E12CD12CDA
:10506000243070F41DC0BE01C8010F943A0189813B
:1050700098819D0D98838E0D8983FF0C09F44CCE89
:10508000F7FEF6CFF0CF4D8150E0440F551F70E092
:1050900060E08E819F810F946C2881E0FDCDFA80C5
:1050A00030E0F901E455FD4FD08028553D4FF9011E
:1050B000E080E6CF58E0580F382F1ACEDF92EF92FB
:1050C000FF920F931F93CF93DF93EC01D62E1CAD6D
:1050D0000BAD7C0184E0E80EF11CE98DFA8DC7016F
:1050E0001995412F480F2D2D602FC7010F946B0587
:1050F0009BAD890F8BAF81E090E0DF91CF911F9145
:105100000F91FF90EF90DF9008958F929F92AF9252
:10511000BF92CF92DF92EF92FF920F931F93CF93A4
:10512000DF93EC018B017A018A859B8586179707AF
:1051300031F0888199810F9445041B870A878885FF
:1051400099850196F9F46A818E81680F97014C81E7
:10515000888199810F94FE052E813F81820F932FC4
:10516000911D9F838E8390E080E0DF91CF911F910E
:105170000F91FF90EF90DF90CF90BF90AF909F90F6
:105180008F900895CE80DF80F701008110E000232A
:1051900009F1A880B980602FC5010F949D04F50125
:1051A000118911954701FFEF8F1A9F0AF401819130
:1051B0004F01F501882341F09089190F082F682FBE
:1051C000C5010F949D04F2CF003279F08389918953
:1051D000890F180FC10ED11C288539852C153D0566
:1051E00008F0B1CF81E090E0C0CF8089F2CF80910C
:1051F000350590913605009731F04AE050E070E0B7
:1052000060E00D94991C60E070E0CB0108950E946D
:10521000F72897FD0CC00E94F7286F3F71058105A4
:10522000910509F034F40E94F728862F089580E054
:1052300008958FEF08958091350590913605892B5B
:1052400041F00E94072991E0811101C090E0892F6F
:10525000089591E0FCCF0E94F728CB01089580913A
:10526000350590913605009731F04AE050E070E046
:1052700060E00D94C71D60E070E0CB0108952F92AF
:105280003F924F925F926F927F928F929F92AF92D6
:10529000BF92CF92DF92EF92FF920F931F93CF9323
:1052A000DF93CDB7DEB7E0970FB6F894DEBF0FBE41
:1052B000CDBF8091DD069091DE0623E030E0B9019C
:1052C0000F9432288B018091DB069091DC06B901A6
:1052D0000F943228072E000C880B990B0F94681F2F
:1052E0006B017C012DEB37E346E855EB0F94182654
:1052F00087FD0BC02DEB37E346E855E3C701B60148
:105300000F94611F18160CF0F8C0A701960160E019
:1053100070E080E89FE30F94B224609325057093BA
:1053200026058093270590932805B801110F880B57
:10533000990B0F94681F6B017C012DEB37E346E856
:1053400055EB0F94182687FD0BC02DEB37E346E88D
:1053500055E3C701B6010F94611F18160CF0D1C0B8
:10536000A701960160E070E080E89FE30F94B2240B
:105370006093290570932A0580932B0590932C0543
:1053800085E5A82E84E0B82E10E0650124E02CA36A
:1053900000E01601F12C912C812C8F2D90E0B0E0D3
:1053A000A0E08BA79CA7ADA7BEA7E82CFF2019F013
:1053B000123009F469C0EE2019F0023009F464C01B
:1053C0006BA57CA58DA59EA50F94661F20E030E0FF
:1053D00040E450E40F94B2246FA378A789A79AA75A
:1053E0006E2D70E090E080E00F94661F20E030E0CA
:1053F00040E450E40F94B2242B013C01DE015196AD
:10540000BBA3AAA3E02EBAA1BFA7EBA1E8ABCE0134
:1054100001969EA38DA319A269A1610F8E2D0E94F2
:105420001024ADA1BEA16D937D938D939D93BEA3DA
:10543000ADA3B9A1BF5FB9A3B43071F74FA158A50F
:1054400069A57AA5CE0101960E94DAE6EAA1FBA140
:105450006193719381939193FBA3EAA3E394FCA1DD
:10546000EF12D5CFB301A2018FA598A90E94DAE669
:105470002CE1289DF001299DF00D1124E20DF31D72
:1054800060837183828393838FEF881A980A93E0F5
:105490008916910409F089CFF394A4E02A0E311CF7
:1054A000B3E0FB1278CF0F5FE4E5CE0ED11CFCA178
:1054B000FF5FFCA3033009F06CCF1F5F2CE0A20E4E
:1054C000B11C133009F061CFE0960FB6F894DEBF3F
:1054D0000FBECDBFDF91CF911F910F91FF90EF9045
:1054E000DF90CF90BF90AF909F908F907F906F9004
:1054F0005F904F903F902F90089560E070E0CB0157
:105500000CCF60E070E0CB0133CF63E972E084E65A
:1055100090E00E9485CA6AEB72E084E690E00C9409
:1055200085CA81110C94852A68EB71E084E190E0D2
:105530000C9485CACF930E94EDD60E946BB5C82FFC
:10554000882319F080E00E9485D18C2FCF910C9494
:10555000912A0E946BB50C94912A8091BA12909175
:10556000BB12891B8F7071F49091451492FB8827B0
:1055700080F992FD08C081E09091D506913019F034
:1055800080E0089581E008958F929F92AF92BF923C
:10559000EF92FF920F931F93CF93DF93EC018B0158
:1055A000E42EF22E8091E8129091E9128C179D075B
:1055B00009F442C040910D0750910E0760910F070A
:1055C000709110074093BB065093BC066093BD06D4
:1055D0007093BE0629EBC83BD207C9F58D529E4396
:1055E00071F40F9475006E517B4F8F4F9F4F6093F6
:1055F000B6067093B7068093B8069093B906D09319
:10560000E912C093E8121093840A0093830AE0928F
:105610007B0AF0927C0ACD52DE4321F41092C80638
:105620001092B50682E08093890281E080937D0A22
:105630001092C50610927A0ADF91CF911F910F91B7
:10564000FF90EF90BF90AF909F908F9008952EE3C2
:10565000CD32D207A1F6885B994B19F0CDE2DEE39B
:10566000CECF0F9475008090B6069090B706A090AC
:10567000B806B090B906681979098A099B0997FF9D
:10568000EDCFC091BF0A0E94AD2A882339F3C770BD
:10569000C73021F7C3ECD1E9B2CFCF93DF9380912C
:1056A0008902882341F06091BF067091C00640E0F6
:1056B00081E00E94A4F98091BA0681111CC081E0AA
:1056C0008093BA06C091E812D091E91220E040E040
:1056D00070E060E08DE49BE20E94C42A0E94CBA6A9
:1056E0001092BA0620E040E070E060E0CE01DF9169
:1056F000CF910C94C42ADF91CF910895E091B50623
:10570000E63000F581E08E0F8093B5068091830A24
:105710009091840AB0E0A0E030917B0A20917C0A4D
:1057200048E0E49FF0011124EB57F94F4091E81253
:105730005091E9125183408382839383A483B5837C
:10574000368327830895CF93DF93EC010E947E2B4D
:1057500020E040E070E060E0CE01DF91CF910C945A
:10576000C42A20E040E070E060E08DE29EE30C940B
:10577000C42AE091B506EE2389F0E150E093B50626
:1057800088E0E89FF0011124EB57F94F62817381A3
:1057900027814681808191810C94C42A0C94B12B7D
:1057A000CF92DF92EF92FF926B017C0120E030E01C
:1057B000A9010F94611F20E030E040E05FE387FF24
:1057C00004C020E030E040E05FEBC701B6010F9479
:1057D000B8230F942425CB01FF90EF90DF90CF905A
:1057E0000C9487C10F94681F0C94D02B0F931F93B8
:1057F000CF93DF938C016F3F19F41092441260E055
:1058000020914412862F062E000C990B281719069A
:1058100009F00CF560934412C8010F94E71E800F45
:10582000911FEC01C01BD10BCB32D1053CF001978D
:10583000FC012491207C2038D1F3F3CFDD27AE0189
:10584000B80189E192E10F94081FC75EDD4E18820E
:1058500083E080938902DF91CF911F910F9108958A
:105860001092840610926A0280914514806280939F
:1058700045140E941EBC60E08BEE96E10E94F62B60
:105880000C94B12B8091451482FD07C08091D50600
:10589000823071F489ED96E10FC08091A30A8111E5
:1058A00004C086E99AE00C94AFE583EA9AE0FBCF66
:1058B000813029F08DEB96E16FEF0C94F62B8FEC95
:1058C00096E1FACF0F931F930F9475000091800615
:1058D000109181062091820630918306601B710B26
:1058E000820B930B97FD0CC086B186FB882780F94D
:1058F00091E08927349B8260329B846080937F068D
:1059000080917F06817090917F0691FD82609091D9
:105910007E06981749F0813009F148F0823079F01D
:10592000833091F080937E061F910F9108959130FE
:1059300079F09230B9F790917D0691500CC099237F
:1059400039F09330C1F3EECF9130A9F3923051F793
:1059500090917D069F5F90937D06E4CF992359F344
:10596000933001F7F5CF81E080937006E5E4F2E132
:105970008AE996E191838083138212823E98469A47
:105980003C98449A3A98429AEAE0F1E080818E7F0E
:10599000808380910B01809581708093090182E062
:1059A00080937B060E94622C10927D060895AF9230
:1059B000BF92CF92DF92EF92FF920F931F93CF93FC
:1059C000DF93EC015B018A01FB01199587FD16C08D
:1059D000C82ED12CF12CE12C2196F801C082D18265
:1059E000E282F382CE01DF91CF911F910F91FF9060
:1059F000EF90DF90CF90BF90AF900895982F907E5A
:105A0000903CA9F48F7190E0B0E0A0E06C017D01C2
:105A100026E0CC0CDD1CEE1CFF1C2A95D1F7CE0134
:105A20000196F50119958F73C82A2296D6CF982F23
:105A3000907F903E11F58F7090E0B0E0A0E06C0197
:105A40007D0186E0CC0CDD1CEE1CFF1C8A95D1F795
:105A5000CE010196F50119958F73C82A96E0CC0CFA
:105A6000DD1CEE1CFF1C9A95D1F7CE010296F501C4
:105A700019958F73C82A2396B0CF982F987F903F9F
:105A800079F5877090E0B0E0A0E06C017D01F6E070
:105A9000CC0CDD1CEE1CFF1CFA95D1F7CE01019653
:105AA000F50119958F73C82AA6E0CC0CDD1CEE1CFD
:105AB000FF1CAA95D1F7CE010296F50119958F73B7
:105AC000C82AB6E0CC0CDD1CEE1CFF1CBA95D1F741
:105AD000CE010396F50119958F73C82A24967DCFC0
